{
  "contractName": "Greeting",
  "abi": [
    {
      "constant": true,
      "inputs": [],
      "name": "creator",
      "outputs": [
        {
          "name": "",
          "type": "address"
        }
      ],
      "payable": false,
      "stateMutability": "view",
      "type": "function"
    },
    {
      "constant": true,
      "inputs": [],
      "name": "greeting",
      "outputs": [
        {
          "name": "",
          "type": "string"
        }
      ],
      "payable": false,
      "stateMutability": "view",
      "type": "function"
    },
    {
      "inputs": [],
      "payable": false,
      "stateMutability": "nonpayable",
      "type": "constructor"
    },
    {
      "anonymous": false,
      "inputs": [
        {
          "indexed": false,
          "name": "message",
          "type": "string"
        }
      ],
      "name": "Sent",
      "type": "event"
    },
    {
      "constant": true,
      "inputs": [],
      "name": "greet",
      "outputs": [
        {
          "name": "",
          "type": "string"
        }
      ],
      "payable": false,
      "stateMutability": "view",
      "type": "function"
    },
    {
      "constant": true,
      "inputs": [],
      "name": "getBlockNumber",
      "outputs": [
        {
          "name": "",
          "type": "uint256"
        }
      ],
      "payable": false,
      "stateMutability": "view",
      "type": "function"
    },
    {
      "constant": false,
      "inputs": [
        {
          "name": "_newgreeting",
          "type": "string"
        }
      ],
      "name": "setGreeting",
      "outputs": [],
      "payable": false,
      "stateMutability": "nonpayable",
      "type": "function"
    }
  ],
  "bytecode": "0x60606040526040805190810160405280600681526020017f416e6472657900000000000000000000000000000000000000000000000000008152506001908051906020019061004f9291906100ec565b50341561005b57600080fd5b336000806101000a81548173ffffffffffffffffffffffffffffffffffffffff021916908373ffffffffffffffffffffffffffffffffffffffff1602179055506040805190810160405280600c81526020017f696e6974206d6573736167650000000000000000000000000000000000000000815250600190805190602001906100e69291906100ec565b50610191565b828054600181600116156101000203166002900490600052602060002090601f016020900481019282601f1061012d57805160ff191683800117855561015b565b8280016001018555821561015b579182015b8281111561015a57825182559160200191906001019061013f565b5b509050610168919061016c565b5090565b61018e91905b8082111561018a576000816000905550600101610172565b5090565b90565b610543806101a06000396000f30060606040526004361061006d576000357c0100000000000000000000000000000000000000000000000000000000900463ffffffff16806302d05d3f1461007257806342cbb15c146100c7578063a4136862146100f0578063cfae32171461014d578063ef690cc0146101db575b600080fd5b341561007d57600080fd5b610085610269565b604051808273ffffffffffffffffffffffffffffffffffffffff1673ffffffffffffffffffffffffffffffffffffffff16815260200191505060405180910390f35b34156100d257600080fd5b6100da61028e565b6040518082815260200191505060405180910390f35b34156100fb57600080fd5b61014b600480803590602001908201803590602001908080601f01602080910402602001604051908101604052809392919081815260200183838082843782019150505050505091905050610296565b005b341561015857600080fd5b610160610318565b6040518080602001828103825283818151815260200191508051906020019080838360005b838110156101a0578082015181840152602081019050610185565b50505050905090810190601f1680156101cd5780820380516001836020036101000a031916815260200191505b509250505060405180910390f35b34156101e657600080fd5b6101ee6103c0565b6040518080602001828103825283818151815260200191508051906020019080838360005b8381101561022e578082015181840152602081019050610213565b50505050905090810190601f16801561025b5780820380516001836020036101000a031916815260200191505b509250505060405180910390f35b6000809054906101000a900473ffffffffffffffffffffffffffffffffffffffff1681565b600043905090565b80600190805190602001906102ac92919061045e565b507f33874c96600e8c16d2f285fd6a074406dfd1b95817ea7c18a0c2b6bdb49f691860405180806020018281038252600a8152602001807f4576656e7420656d69740000000000000000000000000000000000000000000081525060200191505060405180910390a150565b6103206104de565b60018054600181600116156101000203166002900480601f0160208091040260200160405190810160405280929190818152602001828054600181600116156101000203166002900480156103b65780601f1061038b576101008083540402835291602001916103b6565b820191906000526020600020905b81548152906001019060200180831161039957829003601f168201915b5050505050905090565b60018054600181600116156101000203166002900480601f0160208091040260200160405190810160405280929190818152602001828054600181600116156101000203166002900480156104565780601f1061042b57610100808354040283529160200191610456565b820191906000526020600020905b81548152906001019060200180831161043957829003601f168201915b505050505081565b828054600181600116156101000203166002900490600052602060002090601f016020900481019282601f1061049f57805160ff19168380011785556104cd565b828001600101855582156104cd579182015b828111156104cc5782518255916020019190600101906104b1565b5b5090506104da91906104f2565b5090565b602060405190810160405280600081525090565b61051491905b808211156105105760008160009055506001016104f8565b5090565b905600a165627a7a7230582043f008e6e22a13e02aa174e77cdeca9dca8f49a66389c7692f83771d880ac5e20029",
  "source": "pragma solidity ^0.4.11;\r\n\r\n\r\ncontract Greeting {\r\n    address public creator;     // At first, an empty \"address\"-type variable of the name \"creator\". Will be set in the constructor.\r\n    string public greeting = \"Andrey\";     // At first, an empty \"string\"-type variable of the name \"greeting\". Will be set in constructor and can be changed.\r\n\r\n    event Sent(string message);\r\n\r\n    function Greeting() public // The constructor. It accepts a string input and saves it to the contract's \"greeting\" variable.\r\n    {\r\n        creator = msg.sender;\r\n        greeting = \"init message\";\r\n    }\r\n\r\n    function greet() public constant returns (string)\r\n    {\r\n        return greeting;\r\n    }\r\n\r\n    function getBlockNumber() public constant returns (uint) // this doesn't have anything to do with the act of greeting\r\n    {// just demonstrating return of some global variable\r\n        return block.number;\r\n    }\r\n\r\n    function setGreeting(string _newgreeting) public\r\n    {\r\n        greeting = _newgreeting;\r\n        Sent('Event emit');\r\n    }\r\n}\r\n",
  "sourcePath": "c:\\Users\\andrey.patseyko\\workProjects\\Test\\TestSmartContracts\\contracts\\Greeting.sol",
  "compiler": {
    "name": "solc",
    "version": "0.4.19+commit.c4cbbb05.Emscripten.clang"
  },
  "schemaVersion": "2.0.0",
  "updatedAt": "2018-03-02T12:28:23.274Z"
}